:1018000051C091C076C075C074C073C072C071C041
:1018100070C06FC06EC06DC06CC06BC06AC069C064
:1018200068C067C066C065C064C063C062C061C094
:1018300060C05FC0EC2DFD2DB7B6B0FCFDCF27BF5B
:10184000E895B7B6B0FCFDCF21E1B7B6B6FCF4CF52
:10185000089509021200010100803209040000000D
:101860000000000012011001FF000008C016DC0596
:101870000201010200010E03550053004200610005
:10188000730070001C037700770077002E0066005D
:1018900069007300630068006C002E00640065003E
:1018A0000403090411241FBECFEFD4E0DEBFCDBF77
:1018B00024B7D4E0CEEF39913C30399109F03FEFB5
:1018C00030933D0120933C0111E0A0E0B1E0E2EB58
:1018D000FFE102C005900D92A630B107D9F721E0D3
:1018E000A6E0B1E001C01D92AC33B207E1F758D1D8
:1018F0005EC386CFA82FB92F80E090E041E050EA88
:10190000609530E009C02D9182279795879510F05A
:1019100084279527305EC8F36F5FA8F30895EADF48
:101920008D939D930895CF93CFB7CF93DF93C395B6
:101930004F9BE9F74F9B0BC04F9B09C04F9B07C0C4
:101940004F9B05C04F9B03C04F9B01C089C06F9345
:10195000C0911F01DD27CA5DDE4F2F9365E54F9BC8
:1019600003C02F916F91E6CF0F931F934F9320E009
:1019700040E15F9309B1047807FB27F93F9350E0FA
:101980003BE039C0147840642F77012F5F5F1EC0A1
:10199000406819B114782F7752501FC0406409B1C4
:1019A0002F770478D1F15F5F00C023C0406219B186
:1019B0002F77147891F15F5F00C025C0047810275D
:1019C000515012F45D5F0000115027952C3F19B162
:1019D000C8F614780127015027952C3FC8F64227F6
:1019E000499309B1047810274F73115027952C3F64
:1019F000A8F64695469519B1147879F0012701505B
:101A000027952C3F98F66B5A60F3315009B1B0F628
:101A100000C011E01CBB002717C03B503195C31B11
:101A2000D04011E01CBB0881033CF9F00B34E9F015
:101A300020911D011981110F1213EDCF093651F1BB
:101A40000D3211F0013E39F7009324013F915F916F
:101A50004F911F910F912F916F91CCB3C0FD67CF24
:101A6000DF91CF91CFBFCF911895209124012223F0
:101A700069F310912201112339F534303AF1309392
:101A8000220120931E0110911F013BE0311B309376
:101A90001F011CC0009122010130B4F40AE530910D
:101AA000010134FD14C000930101C2E1D1E013C073
:101AB000052710E000C000000BB91AC0052710E090
:101AC000221F1DC010E021C04AE502C032ED432FA5
:101AD000C4E1D0E032E01AB114685F9A0BB11AB9D0
:101AE00054E820E865E320FF05270BB927951795F3
:101AF0001C3FF0F66695B8F7B1F720FF05270BB944
:101B0000279517951C3FD0F62795179517FF0527A2
:101B100000001C3F0BB9B0F629913A9519F70B77E5
:101B200010912301110FC651D0400BB911F0109341
:101B30001D0111E01CBB00681AB11B77402F4B77C9
:101B400054E05A95F1F70BB91AB94BB97FCFFC01A4
:101B500093813481832F2281203339F43370E32F32
:101B6000F0E0EE5FFE4F80810895203221F4FC0109
:101B7000EE0FFF1F06C0283231F4FC01EE0FFF1FED
:101B8000319684910895203A09F4FBC1203C19F460
:101B90006581FFD103C02F3F09F411EF80E0089564
:101BA00017B888E088B981E085BF82E085BF83E00F
:101BB000A89531978040E1F780913C01877F21F41F
:101BC00080913D01882381F0339B0EC0F894579A91
:101BD00018B81DBA1092690081E085BF15BEE0916A
:101BE0000A01F0910B0109951EEF14BE88E10FB6B2
:101BF000F89480936000109260000FBE809169009D
:101C0000826080936900E89A579A8DE0A895319791
:101C10008040E1F75798789400912201035007FD26
:101C20002BC180911F01CCE0D0E0C81BD109CA5D57
:101C3000DE4F80911E018D3209F0B5C0083009F0E9
:101C400019C183EC809312018AE5809301011092FF
:101C500011014881842F80763981882399F186E0AB
:101C600091E09093210180932001333031F4CE0133
:101C70006EDF8093090124E08CC03530F9F03A30F2
:101C8000E9F08CEF830F863098F48A819B819093E2
:101C9000100180930F01393099F08E8180930E01ED
:101CA0008D81827080930D0130930C012FEF6BC0FA
:101CB000323011F41E7F04C0116002C021E069C0FF
:101CC00020E067C08A8110921B01311106C010927A
:101CD0001C018BE191E022E050C0353019F4809373
:101CE00023013DC03630A9F59B81913019F484E67B
:101CF00098E104C0923041F482E598E1909321018B
:101D00008093200122E121C09330F1F4811108C0B9
:101D100080EA98E1909321018093200124E015C08E
:101D2000813041F484E898E190932101809320016F
:101D30002CE10BC0823041F486E798E190932101B9
:101D4000809320012EE001C020E080E48093110107
:101D500018C0383079F0393031F4809325018BE1A7
:101D600091E020E00AC021E03A3009F020E08BE168
:101D700091E003C085E291E021E0909321018093FE
:101D800020012F3F31F447FD2E8180E8809311011F
:101D900007C08F81811104C08E81821708F4282F1B
:101DA0002093000167C08091110187FF63C080917B
:101DB0000E01801708F4082F801B80930E01DD248C
:101DC000D3948111D12C80910C018730C0F0CC2E9E
:101DD000EC2EFD2E8E2D8C19801708F048C0D701EF
:101DE0006D917D0180910F01909110019C012F5FF9
:101DF0003F4F3093100120930F01CBD0EBCF809158
:101E00000D01E0910F01F0911001DE0100FD03953D
:101E1000025048F1F83138F522D0F8940D901D9019
:101E200021E017D02E2F2E5F2F7331F0DD2079F0B7
:101E3000882369F0003059F423E00BD010D025E05E
:101E400008D00DD007B606FE02C021E102D03296BE
:101E5000DFCFF89427BFE89511247894089507B64A
:101E600000FCFDCF0895F0931001E0930F01D11015
:101E700010920001109222018091010184FF6BC039
:101E8000809100018F3F09F466C0082F893008F067
:101E900008E0801B809300018091120198E8892757
:101EA00080931201002309F44AC08091110187FF39
:101EB00028C080910E01801708F4082F801B8093A2
:101EC0000E01D0900C01C3E1D1E083E191E02C2F11
:101ED000281B2017A0F5E0900F01F0901001B6E04C
:101EE000BD1518F4C7014DD002C0F7018491888355
:101EF0002196FFEFEF1AFF0AF0921001E0920F0116
:101F0000E4CFE0912001F091210186FF0BC083E135
:101F100091E0DC0124912D933196202F280F2A1374
:101F2000F9CF09C083E191E0DC0121912D93202FAD
:101F3000280F2A13FACFF0932101E0932001602F9C
:101F400083E191E0ECDC0C5F0C3019F08FEF8093B3
:101F500000010093010184E199B1947831F481503A
:101F6000D9F71092230110921D01103118F0339906
:101F7000105104C0123010F0339B125011114CCE8E
:101F800025CEF999FECF92BD81BDF89A992780B5EB
:101F90000895262FF999FECF1FBA92BD81BD20BDAD
:101FA0000FB6F894FA9AF99A0FBE01960895F8942C
:021FB000FFCF61
:061FB200FF5A1E930F0010
:0400000300001800E1
:00000001FF
